{
  "contractName": "DeeRupeeToken",
  "abi": [
    {
      "inputs": [],
      "payable": false,
      "stateMutability": "nonpayable",
      "type": "constructor"
    },
    {
      "constant": true,
      "inputs": [],
      "name": "totalSupply",
      "outputs": [
        {
          "internalType": "uint256",
          "name": "",
          "type": "uint256"
        }
      ],
      "payable": false,
      "stateMutability": "view",
      "type": "function"
    }
  ],
  "bytecode": "0x6080604052348015600f57600080fd5b50620f42406000819055506084806100286000396000f3fe6080604052348015600f57600080fd5b506004361060285760003560e01c806318160ddd14602d575b600080fd5b60336049565b6040518082815260200191505060405180910390f35b6000548156fea265627a7a72315820473fff08ffb353a64f920d4211244372a065953b8e4a8e98e92e653b8d255b8164736f6c63430005100032",
  "source": "pragma solidity ^0.5.0;\n\ncontract DeeRupeeToken {\n    uint256 public totalSupply;\n\n    constructor() public {\n        totalSupply = 1000000;\n    }\n}",
  "sourcePath": "/Users/rishabhkashyap/Documents/Coding/personal_cryptocurrency/contracts/DeeRupeeToken.sol",
  "compiler": {
    "name": "solc",
    "version": "0.5.16+commit.9c3226ce.Emscripten.clang"
  },
  "schemaVersion": "3.4.6",
  "updatedAt": "2022-03-24T11:05:23.126Z",
  "networkType": "ethereum",
  "devdoc": {
    "methods": {}
  },
  "userdoc": {
    "methods": {}
  }
}